:020000040800F2
:1000000000500020B5300008E9180008EB1800087F
:10001000ED180008EF180008F118000800000000B3
:10002000000000000000000000000000F3180008BD
:10003000F518000800000000F7180008F91800087B
:10004000FD300008FD300008FD300008FD300008DC
:10005000FD300008FD300008FD300008FD300008CC
:10006000FD300008FD300008FD300008FD300008BC
:10007000FD300008FD300008FD300008FD300008AC
:10008000FD300008FD300008FD300008FD3000089C
:10009000FD300008FD300008FD300008FD3000088C
:1000A000FD300008FD300008FD300008FD3000087C
:1000B000FD300008FD300008FD300008FD3000086C
:1000C000FD300008FD300008FD300008FD3000085C
:1000D000FD300008FD300008FD300008FD3000084C
:1000E000FD300008FD300008FD3000080000000071
:1000F0000000000000000000000000000000000000
:0C01000000000000000000005FF808F1A3
:1001100081F0004102E000BF83F0004330B54FEAB8
:1001200041044FEA430594EA050F08BF90EA020F25
:100130001FBF54EA000C55EA020C7FEA645C7FEAB8
:10014000655C00F0E2804FEA5454D4EB5555B8BFDB
:100150006D420CDD2C4480EA020281EA030382EA4C
:10016000000083EA010180EA020281EA0303362DDE
:1001700088BF30BD11F0004F4FEA01314FF4801CB1
:100180004CEA113102D0404261EB410113F0004FC3
:100190004FEA03334CEA133302D0524263EB43037A
:1001A00094EA050F00F0A780A4F10104D5F1200E18
:1001B0000DDB02FA0EFC22FA05F2801841F1000173
:1001C00003FA0EF2801843FA05F359410EE0A5F147
:1001D00020050EF1200E012A03FA0EFC28BF4CF078
:1001E000020C43FA05F3C01851EBE37101F000452E
:1001F00007D54FF0000EDCF1000C7EEB00006EEB3B
:100200000101B1F5801F1BD3B1F5001F0CD34908C4
:100210005FEA30004FEA3C0C04F101044FEA44521B
:1002200012F5800F80F09A80BCF1004F08BF5FEAA2
:10023000500C50F1000041EB045141EA050130BD82
:100240005FEA4C0C404141EB0101013C28BFB1F594
:10025000801FE9D291F0000F04BF01460020B1FADF
:1002600081F308BF2033A3F10B03B3F120020CDAB2
:100270000C3208DD02F1140CC2F10C0201FA0CF090
:1002800021FA02F10CE002F11402D8BFC2F1200CF5
:1002900001FA02F120FA0CFCDCBF41EA0C019040AB
:1002A000E41AA2BF01EB0451294330BD6FEA0404F4
:1002B0001F3C1CDA0C340EDC04F11404C4F12002DF
:1002C00020FA04F001FA02F340EA030021FA04F3F1
:1002D00045EA030130BDC4F10C04C4F1200220FA48
:1002E00002F001FA04F340EA0300294630BD21FA86
:1002F00004F0294630BD94F0000F83F4801306BF4C
:1003000081F480110134013D4EE77FEA645C18BF3F
:100310007FEA655C29D094EA050F08BF90EA020FD6
:1003200005D054EA000C04BF1946104630BD91EACE
:10033000030F1EBF0021002030BD5FEA545C05D1D1
:100340004000494128BF41F0004130BD14F5800410
:100350003CBF01F5801130BD01F0004545F0FE4184
:1003600041F470014FF0000030BD7FEA645C1ABFB9
:10037000194610467FEA655C1CBF0B46024650EAF0
:10038000013406BF52EA033591EA030F41F400211C
:1003900030BD00BF90F0000F04BF0021704730B5A2
:1003A0004FF4806404F132044FF000054FF0000177
:1003B00050E700BF90F0000F04BF0021704730B538
:1003C0004FF4806404F1320410F0004548BF40420D
:1003D0004FF000013EE700BF42004FEAE2014FEA62
:1003E00031014FEA02701FBF12F07F4393F07F4F3D
:1003F00081F06051704732F07F4208BF704793F040
:100400007F4F04BF41F40021704730B54FF4607452
:1004100001F0004521F000411CE700BF50EA010255
:1004200008BF704730B54FF000050AE050EA0102FE
:1004300008BF704730B511F0004502D5404261EB6E
:1004400041014FF4806404F132045FEA915C3FF4AF
:10045000D8AE4FF003025FEADC0C18BF03325FEA4C
:10046000DC0C18BF033202EBDC02C2F1200300FAFD
:1004700003FC20FA02F001FA03FE40EA0E0021FA22
:1004800002F11444BDE600BF70B54FF0FF0C4CF410
:10049000E06C1CEA11541DBF1CEA135594EA0C0FC2
:1004A00095EA0C0F00F0DEF82C4481EA030621EAFD
:1004B0004C5123EA4C5350EA013518BF52EA033538
:1004C00041F4801143F4801338D0A0FB02CE4FF0EA
:1004D0000005E1FB02E506F00042E0FB03E54FF01A
:1004E0000006E1FB03569CF0000F18BF4EF0010E12
:1004F000A4F1FF04B6F5007F64F5407404D25FEA0E
:100500004E0E6D4146EB060642EAC62141EA5551C0
:100510004FEAC52040EA5E504FEACE2EB4F1FD0C02
:1005200088BFBCF5E06F1ED8BEF1004F08BF5FEA80
:10053000500E50F1000041EB045170BD06F0004632
:1005400046EA010140EA020081EA0301B4EB5C04DF
:10055000C2BFD4EB0C0541EA045170BD41F48011D7
:100560004FF0000E013C00F3AB8014F1360FDEBFFC
:10057000002001F0004170BDC4F10004203C35DAD8
:100580000C341BDC04F11404C4F1200500FA05F35B
:1005900020FA04F001FA05F240EA020001F00042FC
:1005A00021F0004110EBD37021FA04F642EB060172
:1005B0005EEA430E08BF20EAD37070BDC4F10C049C
:1005C000C4F1200500FA04F320FA05F001FA04F260
:1005D00040EA020001F0004110EBD37041F100014C
:1005E0005EEA430E08BF20EAD37070BDC4F1200557
:1005F00000FA05F24EEA020E20FA04F301FA05F2BF
:1006000043EA020321FA04F001F0004121FA04F266
:1006100020EA020000EBD3705EEA430E08BF20EA36
:10062000D37070BD94F0000F0FD101F00046400070
:1006300041EB010111F4801F08BF013CF7D041EAF2
:10064000060195F0000F18BF704703F000465200F6
:1006500043EB030313F4801F08BF013DF7D043EAC7
:100660000603704794EA0C0F0CEA135518BF95EA7D
:100670000C0F0CD050EA410618BF52EA4306D1D104
:1006800081EA030101F000414FF0000070BD50EA23
:10069000410606BF1046194652EA430619D094EAAD
:1006A0000C0F02D150EA013613D195EA0C0F05D197
:1006B00052EA03361CBF104619460AD181EA0301EB
:1006C00001F0004141F0FE4141F470014FF00000A3
:1006D00070BD41F0FE4141F4780170BD70B54FF03E
:1006E000FF0C4CF4E06C1CEA11541DBF1CEA1355BE
:1006F00094EA0C0F95EA0C0F00F0A7F8A4EB0504A0
:1007000081EA030E52EA03354FEA013100F0888096
:100710004FEA03334FF0805545EA131343EA12635F
:100720004FEA022245EA111545EA10654FEA002614
:100730000EF000419D4208BF964244F1FD0404F5CD
:10074000407402D25B084FEA3202B61A65EB030529
:100750005B084FEA32024FF480104FF4002CB6EBE6
:10076000020E75EB030E22BFB61A754640EA0C0066
:100770005B084FEA3202B6EB020E75EB030E22BFA6
:10078000B61A754640EA5C005B084FEA3202B6EBE7
:10079000020E75EB030E22BFB61A754640EA9C00A6
:1007A0005B084FEA3202B6EB020E75EB030E22BF76
:1007B000B61A754640EADC0055EA060E18D04FEA34
:1007C000051545EA16754FEA06164FEAC30343EAD4
:1007D00052734FEAC2025FEA1C1CC0D111F4801FA1
:1007E0000BD141EA00014FF000004FF0004CB6E79A
:1007F00011F4801F04BF01430020B4F1FD0C88BF39
:10080000BCF5E06F3FF6AFAEB5EB030C04BFB6EB43
:10081000020C5FEA500C50F1000041EB045170BD36
:100820000EF0004E4EEA113114EB5C04C2BFD4EB63
:100830000C0541EA045170BD41F480114FF0000EE7
:10084000013C90E645EA060E8DE60CEA135594EA63
:100850000C0F08BF95EA0C0F3FF43BAF94EA0C0F66
:100860000AD150EA01347FF434AF95EA0C0F7FF4DB
:1008700025AF104619462CE795EA0C0F06D152EA2F
:1008800003353FF4FDAE1046194622E750EA410613
:1008900018BF52EA43067FF4C5AE50EA41047FF424
:1008A0000DAF52EA43057FF4EBAE12E74FEA410287
:1008B000B2F1E04324BFB3F5001CDCF1FE5C0DD9BE
:1008C00001F0004C4FEAC0024CEA5070B2F1004F08
:1008D00040EB830008BF20F00100704711F0804F0B
:1008E00021D113F13872BCBF01F00040704741F4D0
:1008F00080114FEA5252C2F11802C2F1200C10FAD4
:100900000CF320FA02F018BF40F001004FEAC123B7
:100910004FEAD32303FA0CFC40EA0C0023FA02F35B
:100920004FEA4303CCE77FEA625307D150EA013331
:100930001EBF4FF0FE4040F44000704701F0004001
:1009400040F0FE4040F40000704700BF80F00040DF
:1009500002E000BF81F0004142001FBF5FEA410397
:1009600092EA030F7FEA226C7FEA236C6AD04FEA97
:100970001262D2EB1363C1BFD218414048404140DC
:10098000B8BF5B42192B88BF704710F0004F40F48E
:10099000000020F07F4018BF404211F0004F41F4AA
:1009A000000121F07F4118BF494292EA030F3FD076
:1009B000A2F1010241FA03FC10EB0C00C3F1200389
:1009C00001FA03F100F0004302D5494260EB400018
:1009D000B0F5000F13D3B0F1807F06D340084FEA83
:1009E000310102F10102FE2A51D2B1F1004F40EB78
:1009F000C25008BF20F0010040EA030070474900E0
:100A000040EB0000013A28BFB0F5000FEDD2B0FA7C
:100A100080FCACF1080CB2EB0C0200FA0CF0AABF9F
:100A200000EBC25052421843BCBFD040184370473D
:100A300092F0000F81F4000106BF80F40000013243
:100A4000013BB5E74FEA41037FEA226C18BF7FEA1A
:100A5000236C21D092EA030F04D092F0000F08BF5C
:100A60000846704790EA010F1CBF0020704712F043
:100A70007F4F04D1400028BF40F00040704712F182
:100A800000723CBF00F50000704700F0004343F0E7
:100A9000FE4040F4000070477FEA226216BF08461D
:100AA0007FEA23630146420206BF5FEA412390EAE0
:100AB000010F40F4800070474FF0000304E000BFD6
:100AC00010F0004348BF40425FEA000C08BF704787
:100AD00043F0964301464FF000001CE050EA01024B
:100AE00008BF70474FF000030AE000BF50EA010260
:100AF00008BF704711F0004302D5404261EB41014D
:100B00005FEA010C02BF84460146002043F0B64371
:100B100008BFA3F18053A3F50003BCFA8CF2083A96
:100B2000A3EBC25310DB01FA02FC634400FA02FC9F
:100B3000C2F12002BCF1004F20FA02F243EB0200A6
:100B400008BF20F00100704702F1200201FA02FC08
:100B5000C2F1200250EA4C0021FA02F243EB0200FB
:100B600008BF20EADC7070474FF0FF0C1CEAD0523F
:100B70001EBF1CEAD15392EA0C0F93EA0C0F6FD000
:100B80001A4480EA010C400218BF5FEA41211ED0DE
:100B90004FF0006343EA501043EA5111A0FB0131CA
:100BA0000CF00040B1F5000F3EBF490041EAD3719F
:100BB0005B0040EA010062F17F02FD2A1DD8B3F11B
:100BC000004F40EBC25008BF20F00100704790F08A
:100BD000000F0CF0004C08BF49024CEA502040EADC
:100BE00051207F3AC2BFD2F1FF0340EAC2507047A2
:100BF00040F400004FF00003013A5DDC12F1190FE0
:100C0000DCBF00F000407047C2F10002410021FA51
:100C100002F1C2F1200200FA02FC5FEA310040F169
:100C2000000053EA4C0308BF20EADC70704792F0E2
:100C3000000F00F0004C02BF400010F4000F013A1A
:100C4000F9D040EA0C0093F0000F01F0004C02BF15
:100C5000490011F4000F013BF9D041EA0C018FE784
:100C60000CEAD15392EA0C0F18BF93EA0C0F0AD08A
:100C700030F0004C18BF31F0004CD8D180EA0100B0
:100C800000F00040704790F0000F17BF90F0004F49
:100C9000084691F0000F91F0004F14D092EA0C0F2B
:100CA00001D142020FD193EA0C0F03D14B0218BFBE
:100CB000084608D180EA010000F0004040F0FE4004
:100CC00040F40000704740F0FE4040F440007047A0
:100CD0004FF0FF0C1CEAD0521EBF1CEAD15392EA1F
:100CE0000C0F93EA0C0F69D0A2EB030280EA010C0F
:100CF00049024FEA402037D04FF0805343EA1111A8
:100D000043EA10130CF000408B4238BF5B0042F105
:100D10007D024FF4000C8B4224BF5B1A40EA0C00AA
:100D2000B3EB510F24BFA3EB510340EA5C00B3EBDC
:100D3000910F24BFA3EB910340EA9C00B3EBD10FCA
:100D400024BFA3EBD10340EADC001B0118BF5FEA1C
:100D50001C1CE0D1FD2A3FF650AF8B4240EBC25045
:100D600008BF20F0010070470CF0004C4CEA502006
:100D70007F32C2BFD2F1FF0340EAC250704740F455
:100D800000004FF00003013A37E792F0000F00F047
:100D9000004C02BF400010F4000F013AF9D040EAC5
:100DA0000C0093F0000F01F0004C02BF490011F459
:100DB000000F013BF9D041EA0C0195E70CEAD15351
:100DC00092EA0C0F08D142027FF47DAF93EA0C0F38
:100DD0007FF470AF084676E793EA0C0F04D14B021C
:100DE0003FF44CAF08466EE730F0004C18BF31F0CE
:100DF000004CCAD130F000427FF45CAF31F00043C8
:100E00007FF43CAF5FE700BF4FF0FF3C06E000BF60
:100E10004FF0010C02E000BF4FF0010C4DF804CD83
:100E20004FEA40024FEA41037FEA226C18BF7FEA93
:100E3000236C11D001B052EA530C18BF90EA010F95
:100E400058BFB2EB030088BFC81738BF6FEAE17024
:100E500018BF40F0010070477FEA226C02D15FEAC0
:100E6000402C05D17FEA236CE4D15FEA412CE1D02C
:100E70005DF8040B704700BF844608466146FFE7F3
:100E80000FB5FFF7C9FF002848BF10F1000F0FBDD5
:100E90004DF808EDFFF7F4FF0CBF012000205DF8CE
:100EA00008FB00BF4DF808EDFFF7EAFF34BF012053
:100EB00000205DF808FB00BF4DF808EDFFF7E0FFEC
:100EC00094BF012000205DF808FB00BF4DF808ED3D
:100ED000FFF7D2FF94BF012000205DF808FB00BFA0
:100EE0004DF808EDFFF7C8FF34BF012000205DF882
:100EF00008FB00BF844641EA000313F0030349D115
:100F0000403A23D30B6803604B6843608B6883606F
:100F1000CB68C3600B6903614B6943618B69836173
:100F2000CB69C3610B6A03624B6A43628B6A83625B
:100F3000CB6AC3620B6B03634B6B43638B6B836343
:100F4000CB6BC36340304031403ADBD230320BD3FD
:100F50000B6803604B6843608B688360CB68C36039
:100F600010301031103AF3D20C3205D351F8043B53
:100F700040F8043B043AF9D2043208D0D2071CBF2F
:100F800011F8013B00F8013B01D30B880380604658
:100F9000704700BF082A13D38B07B1D010F00303AA
:100FA000AED0C3F10403D21ADB071CBF11F8013B1A
:100FB00000F8013BA4D331F8023B20F8023B9FE745
:100FC000043AD9D3013A11F8013B00F8013BF9D2B8
:100FD0000B7803704B7843708B7883706046704752
:100FE0004FF0FF3C06E000BF4FF0010C02E000BFF5
:100FF0004FF0010C4DF804CD4FEA410C7FEA6C5CD8
:101000004FEA430C18BF7FEA6C5C1BD001B050EA7A
:10101000410C0CBF52EA430C91EA030F02BF90EA65
:10102000020F0020704710F1000F91EA030F58BF24
:10103000994208BF90422CBFD8176FEAE37040F086
:10104000010070474FEA410C7FEA6C5C02D150EA24
:10105000013C07D14FEA430C7FEA6C5CD6D152EADF
:10106000033CD3D05DF8040B704700BF84461046A4
:1010700062468C461946634600E000BF01B5FFF7A3
:10108000B7FF002848BF10F1000F01BD4DF808ED73
:10109000FFF7F4FF0CBF012000205DF808FB00BF44
:1010A0004DF808EDFFF7EAFF34BF012000205DF89E
:1010B00008FB00BF4DF808EDFFF7E0FF94BF0120EB
:1010C00000205DF808FB00BF4DF808EDFFF7CEFFEC
:1010D00094BF012000205DF808FB00BF4DF808ED2B
:1010E000FFF7C4FF34BF012000205DF808FB00BFFC
:1010F0004FEA410C7FEA6C5C02D150EA013C0AD114
:101100004FEA430C7FEA6C5C02D152EA033C02D105
:101110004FF0000070474FF0010070474FEA410266
:1011200012F5001215D211D56FF47873B3EB625239
:1011300012D94FEAC12343F0004343EA505311F060
:10114000004F23FA02F018BF404270474FF00000F2
:10115000704750EA013005D111F0004008BF6FF030
:10116000004070474FF00000704700BF0348044B39
:10117000834202D0034B03B118477047C4060020D6
:10118000C4060020000000000548064B1B1AD90FBA
:1011900001EBA301491002D0034B03B1184770477C
:1011A000C4060020C40600200000000010B5064C54
:1011B000237843B9FFF7DAFF044B13B10448AFF3C8
:1011C00000800123237010BDC40600200000000031
:1011D0008C96000808B5054B1BB105490548AFF3CF
:1011E0000080BDE80840FFF7CFBF00BF000000004F
:1011F000C80600208C9600082DE9F04188B0002434
:101200000494059406940794364B9A6942F01002B0
:101210009A619A6902F010020092009A9A6942F06B
:1012200020029A619A6902F020020192019A9A6959
:1012300042F004029A619A6902F004020292029A50
:101240009A6942F008029A619B6903F008030393CC
:10125000039BDFF8948001220721404600F019FF2C
:1012600022464FF4E071404600F013FF1F4D224626
:1012700048F24001284600F00CFF4FF4005304935D
:1012800005940126069604A9194800F0EDFD40F2E8
:10129000C7130493059606940227079704A94046AE
:1012A00000F0E2FD47F6204304930594069404A958
:1012B000284600F0D9FD4FF40043049305960694A8
:1012C000079704A9284600F0CFFD40230493059614
:1012D00006970323079304A9284600F0C5FD08B02C
:1012E000BDE8F0810010024000080140000C014000
:1012F0000010014010B584B2C4F57F44FA34A4B2A2
:10130000084803685C6201F0A7FA03E0054B1B681C
:101310005C6AA4B24FF6F9739C42F7D9014801F018
:10132000C9FA10BDF006002010B50F4B1B880F4AFC
:101330001268D363093B136401224FF400410C4847
:1013400000F0A7FE0B4C00224FF48071204600F005
:10135000A0FE00224021204600F09BFE01228021B9
:10136000204600F096FE10BD020000203807002045
:10137000000C01400008014010B501224FF400416B
:101380000A4800F086FE0A4C01224FF48071204684
:1013900000F07FFE01224021204600F07AFE01226B
:1013A0008021204600F075FE10BD00BF000C0140FA
:1013B0000008014010B50F4B1A680F4B1B882D3BDE
:1013C000D36301224FF400410C4800F062FE0C4C44
:1013D00000224FF48071204600F05BFE0122402184
:1013E000204600F056FE01228021204600F051FEEA
:1013F00010BD00BF3807002002000020000C014093
:101400000008014010B50F4B1A680F4B1B88283B92
:10141000136401224FF400410C4800F03AFE0C4CDA
:1014200001224FF48071204600F033FE002240215B
:10143000204600F02EFE01228021204600F029FEE9
:1014400010BD00BF3807002002000020000C014042
:101450000008014010B5074C01224021204600F051
:1014600018FE1420FFF746FF00224021204600F01E
:1014700010FE10BD000C014010B540B106480368D5
:1014800000245C6201F0E8F9044B1C8010BD0248A6
:1014900001F010FAFAE700BF80070020E206002002
:1014A00008B5FFF7D7FF20210D4800F0EBFD00281D
:1014B000F9D00120FFF7E0FF2021094800F0E2FD0C
:1014C0000028F9D1FFF7D8FF064B1B68586AFEF7D2
:1014D00061FF0022044BFFF701F9FFF7E7F908BDB0
:1014E000000C01408007002000004D4070B506460A
:1014F0000025002407E0FFF7D3FF01462046FFF751
:101500002BFA04460135AE42F5DC3046FFF7D8FA37
:1015100001462046FFF7DCFB70BD000010B53FE040
:10152000002222700D2310226749684801F0FEFC5A
:10153000FFF722FF10BD0520FFF7D8FF6449FFF732
:10154000B1FC002843D0634B00221A7011231322F0
:1015500061495E4801F0EAFCFFF70EFFEAE7FFF79A
:10156000E3FE40F2DC5000F001FC5C4B00221A70FC
:1015700031E04FF400615A4800F084FD002867D044
:101580004FF40051564800F07DFD00286DD0554BBA
:101590001B78012B00F08D80534A13880133138090
:1015A0004C4C0A2301222146484801F01EFD2378B5
:1015B000332BB5D04C4B1A884C4BA3FB0213DB08E2
:1015C00003EB8303A2EB430292B2002AB3D0434B56
:1015D0001B78002BC3D14FF40061414800F052FD4D
:1015E0000028C6D04FF400513D4800F04BFD0028C4
:1015F000BFD04FF480613A4800F044FD30B14FF461
:101600008041374800F03EFD00284FD14FF4806103
:10161000334800F037FD002834D04FF48041304883
:1016200000F030FD0028B2D10B2000F09FFB4FF4FA
:1016300080412B4800F026FD0028A8D1FFF7E2FEEC
:101640004FF48051264800F01DFD0128F8D09EE798
:101650000A2000F08BFB4FF40061214800F012FDDE
:1016600000288DD1FFF7A6FE8AE70A2000F07EFB56
:101670004FF400511A4800F005FD002887D1FFF70C
:10168000C1FE84E70B2000F071FB4FF48061144829
:1016900000F0F8FC0028C0D1FFF78CFE4FF4805119
:1016A0000F4800F0EFFC0128F8D0B6E7FFF73CFE4A
:1016B0006DE708230D220E49044801F037FC094B61
:1016C00000221A7068E700BFA8960008C80700202B
:1016D0000000A041E5060020B896000800000020A8
:1016E000000C0140E4060020E0060020CDCCCCCC6C
:1016F000CC96000872B6FEE700B591B02822002112
:1017000006A801F057FE002301930293039304936C
:101710000593012206924FF4803307930A92022226
:101720000D920E934FF480130F9306A800F0D6FC91
:1017300080B90F23019302210291002303934FF4F8
:1017400080620492059301A800F000FF20B911B057
:101750005DF804FBFFF7CEFFFFF7CCFF00000000B1
:1017600000B585B000F0DEFAFFF7C6FFFFF744FDD5
:1017700000F010FA00F05AFA00F070F900F038F9B1
:101780003D4EEB2333803D4D0821284601F06EFA93
:101790000C21284601F06AFA394C142309223949F0
:1017A000204601F0C3FB14230D223749204601F0E7
:1017B000BDFB14230D223549204601F0B7FB002361
:1017C00001930293ADF80C303088FEF7F3FD02462A
:1017D0000B4625A1D1E90001FEF780FF24A3D3E940
:1017E0000023FEF77BFF02460B46294901A801F0C2
:1017F00077FD14230A2201A9204601F097FB3388C4
:101800002A68D3631E3B13640CE0224B1B78312BF8
:1018100015D1214B01221A701E4B00221A701E4B4B
:101820001B78A3B91B4B1B78312BEED00023012270
:101830001849134801F0D9FB0028F3D0E5E74FF42D
:101840000051164800F01EFC0028E8D1E1E71423FF
:10185000072213490A4801F069FB0F4B00221A7056
:10186000FFF75CFEDEE700BF0000000080842E4131
:10187000000000000088C34002000020380700205C
:10188000C8070020DC960008E8960008F8960008D3
:1018900008970008E5060020E60600200010014039
:1018A0001097000882B00E4B9A6942F001029A61CB
:1018B0009A6902F001020092009ADA6942F08052BD
:1018C000DA61DB6903F080530193019B054A536899
:1018D00023F0E06343F00073536002B0704700BF31
:1018E0000010024000000140FEE7FEE7FEE7FEE7D1
:1018F000FEE770477047704710B500F025FA0C4AB4
:10190000138801339BB21380632B00D810BD13469C
:1019100000221A80074B01221A70074C0221204630
:1019200000F0BDFB0421204600F0B9FBEEE700BF4C
:10193000E8060020E406002000080140012070476E
:1019400008B501F0DBFD162303604FF0FF3008BD42
:1019500008B54FF0FF31FFF7F3FFFEE770B50C4617
:101960001646002506E0AFF30080214601F8010B82
:1019700001350C46B542F6DB304670BD70B50C46FD
:101980001646002504E014F8010BAFF30080013582
:10199000B542F8DB304670BD08B503460B4A126805
:1019A00042B10A4A106803446A46934206D8074A7D
:1019B000136008BD054A06491160F2E701F09EFD7B
:1019C0000C2303604FF0FF30F3E700BFEC0600206C
:1019D000280B00204FF0FF3070474FF400534B604E
:1019E00000207047012070470020704770470000BA
:1019F00000B587B0002302930393049305930093EB
:101A0000019315484FF08042026047224260836094
:101A10004FF6FF72C2600361836100F099FF90B9D5
:101A20004FF48053029302A90B4801F091F868B972
:101A30000023009301936946074801F085F940B9F6
:101A400007B05DF804FBFFF755FEE9E7FFF752FE2C
:101A5000EEE7FFF74FFEF3E78007002000B587B001
:101A60000023029303930493059300930193154875
:101A7000154A02604722426083604FF6FF72C260DF
:101A80000361836100F064FF90B94FF480530293C7
:101A900002A90C4801F05CF868B900230093019397
:101AA0006946084801F050F940B907B05DF804FBF9
:101AB000FFF720FEE9E7FFF71DFEEEE7FFF71AFE4E
:101AC000F3E700BFF00600200008004082B0036882
:101AD000B3F1804F04D00E4A93420DD002B070474C
:101AE00003F50433DA6942F00102DA61DB6903F0DD
:101AF00001030093009BF1E7064BDA6942F0040210
:101B0000DA61DB6903F004030193019BE6E700BFA0
:101B100000080040001002400268094B9A4200D0C1
:101B2000704782B003F50333DA6942F00202DA61EA
:101B3000DB6903F002030193019B02B0704700BF11
:101B40000004004000B587B0002302930393049380
:101B5000059302680D4B9A4202D007B05DF804FB72
:101B600003F503339A6942F008029A619B6903F016
:101B700008030193019B032302930223039305931C
:101B800002A9034800F070F9E7E700BF0004004035
:101B9000000C014000B58BB000230893099301931A
:101BA0000293039304930593069307931D481E4ADB
:101BB000026047224260836040F2F312C260036118
:101BC0008023836100F0F0FEF8B9002308930993A5
:101BD00008A9144801F0B8F8D0B960230193002394
:101BE000029303930593082201A90E4800F036FFE3
:101BF00088B90C2201A90B4800F030FF70B90948E0
:101C0000FFF7A0FF0BB05DF804FBFFF773FDDCE707
:101C1000FFF770FDE1E7FFF76DFDEAE7FFF76AFD0B
:101C2000EDE700BF380700200004004008B50A486F
:101C30000A4B03604FF41653436000238360C36074
:101C400003610C2242618361C36101F03FF900B975
:101C500008BDFFF74FFDFBE7C80700200038014033
:101C600010B586B000230293039304930593026892
:101C7000174B9A4201D006B010BD03F558439A693C
:101C800042F480429A619A6902F480420092009A7A
:101C90009A6942F004029A619B6903F0040301937C
:101CA000019B4FF4007302930223039303230593D4
:101CB000084C02A9204600F0D7F84FF48063029345
:101CC00000230393049302A9204600F0CDF8D2E745
:101CD000003801400008014010B504460E4B1A7848
:101CE0004FF47A73B3FBF2F30C4A1068B0FBF3F0D5
:101CF00000F0A6F868B90F2C01D901200AE00022F3
:101D000021464FF0FF3000F08BF8054B1C6000209F
:101D100000E0012010BD00BF0800002004000020EA
:101D20000C00002008B5074A136843F01003136045
:101D3000032000F063F80F20FFF7CEFFFFF7B2FD9E
:101D4000002008BD00200240034A1168034B1B78A5
:101D50000B441360704700BF1008002008000020EB
:101D6000014B1868704700BF1008002038B50446C2
:101D7000FFF7F6FF0546B4F1FF3F02D0044B1B7896
:101D80001C44FFF7EDFF401BA042FAD338BD00BF53
:101D900008000020002808DB0901C9B200F16040FA
:101DA00000F5614080F80013704700F00F00090152
:101DB000C9B2014B1954704714ED00E000B500F0B2
:101DC0000700C0F1070CBCF1040F28BF4FF0040C52
:101DD000031D062B0FD9C31E4FF0FF3E0EFA0CF069
:101DE00021EA000199400EFA03FE22EA0E0241EABE
:101DF00002005DF804FB0023EEE70000074AD36809
:101E000023F4E0631B041B0C000200F4E0600343B6
:101E100043F0BF6343F40033D360704700ED00E04C
:101E200010B50446054BD868C0F30220FFF7C6FF83
:101E300001462046FFF7AEFF10BD00BF00ED00E0F9
:101E40000138B0F1807F0BD24FF0E0235861054A92
:101E5000F02182F823100020986107221A61704750
:101E60000120704700ED00E070B582B00024A44668
:101E7000A2E07E4DAB4210D007D97D4DAB420CD0D5
:101E800005F58035AB4208D013E0A5F58015AB42CF
:101E900003D005F57025AB4207D18B68002B55D0D8
:101EA000012B4ED04261082403E0A5F58015AB421A
:101EB000F3D0BEF1FF0F4BD806464FEA8C023368D1
:101EC0000F25954023EA050304FA02F21343336019
:101ED0004B6813F0805F6DD0664B9A6942F0010247
:101EE0009A619B6903F001030193019B4FEA9C02F5
:101EF000951C614B53F825600CF00305AD000F23D2
:101F0000AB4026EA03065D4B984228D003F5806378
:101F1000984200F08D8003F58063984200F08A803B
:101F200003F58063984218D0042319E0CC68C0E719
:101F3000CC680434BDE7CC680834BAE7CC680C340C
:101F4000B7E702610824B4E70024B2E70424B0E74D
:101F5000061DACF108029200B1E7032300E0002364
:101F6000AB4033430232444D45F822304B6813F402
:101F7000801F61D0424A936843EA0E0393604B6826
:101F800013F4001F5ED03E4AD36843EA0E03D360C9
:101F90004B6813F4003F5BD0394A536843EA0E03A1
:101FA00053604B6813F4803F58D0354A136843EAB6
:101FB0000E0313600CF1010C0B6833FA0CF253D0D2
:101FC000012202FA0CF203EA020E32EA0303F1D113
:101FD0004B68122B3FF64DAF122B3FF66AAF01A5AF
:101FE00055F823F09B1E00082D1F0008371F00081E
:101FF000491F0008B31E0008B31E0008B31E0008E6
:10200000B31E0008B31E0008B31E0008B31E00086C
:10201000B31E0008B31E0008B31E0008B31E00085C
:10202000B31E0008B31E0008311F00083D1F000842
:10203000012395E7022393E7114A936823EA0E03ED
:1020400093609CE70E4AD36823EA0E03D3609FE7B0
:102050000B4A536823EA0E035360A2E7084A136849
:1020600023EA0E031360A5E702B070BD0000221042
:102070000000311000100240000001400008014043
:10208000000401408368194201D0012070470020FC
:1020900070470AB101617047090401617047C36864
:1020A00001EA030221EA030141EA024101617047AA
:1020B00082B0084B1B68084AA2FB03235B0A00FBA3
:1020C00003F3019300BF019B5A1E0192002BF9D12B
:1020D00002B0704704000020D34D6210002800F0C9
:1020E000F18170B582B00446036813F0010F2CD063
:1020F000994B5B6803F00C03042B1DD0964B5B6877
:1021000003F00C03082B12D06368B3F5803F41D075
:10211000002B55D103F1804303F504331A6822F4F0
:1021200080321A601A6822F480221A6037E08A4BE3
:102130005B6813F4803FE7D0874B1B6813F4003FC4
:1021400003D06368002B00F0BF81236813F0020FF7
:1021500075D0814B5B6813F00C0F5FD07E4B5B68D2
:1021600003F00C03082B54D02369002B00F08A8065
:102170007A4B01221A60FFF7F3FD0546764B1B6888
:1021800013F0020F75D1FFF7EBFD401B0228F5D9C4
:1021900003209EE1704A136843F480331360636840
:1021A00043B3FFF7DDFD05466B4B1B6813F4003F9F
:1021B000CBD1FFF7D5FD401B6428F5D9032088E17A
:1021C000B3F5A02F09D0644B1A6822F480321A604C
:1021D0001A6822F480221A60E1E703F18043A3F534
:1021E0003C331A6842F480221A601A6842F4803242
:1021F0001A60D4E7FFF7B4FD0546574B1B6813F48C
:10220000003FA2D0FFF7ACFD401B6428F5D90320A6
:102210005FE1514B5B6813F4803FA5D14E4B1B68C7
:1022200013F0020F03D02369012B40F04F814A4A7B
:10223000136823F0F803616943EAC103136023685C
:1022400013F0080F33D0A369002B5CD0434B01225D
:10225000C3F88024FFF784FD05463F4B5B6A13F00B
:10226000020F21D1FFF77CFD401B0228F5D9032086
:102270002FE1394A136823F0F803616943EAC10387
:102280001360DCE7354B00221A60FFF769FD054655
:10229000314B1B6813F0020FD1D0FFF761FD401BDB
:1022A0000228F5D9032014E10120FFF701FF23687C
:1022B00013F0040F00F09680274BDB6913F0805F6A
:1022C00034D1254BDA6942F08052DA61DB6903F0E0
:1022D00080530193019B0125214B1B6813F4807FE0
:1022E00026D0E368012B3DD0002B53D103F180436E
:1022F00003F504331A6A22F001021A621A6A22F004
:1023000004021A6233E0154B0022C3F88024FFF761
:1023100027FD0546104B5B6A13F0020FC7D0FFF78D
:102320001FFD401B0228F5D90320D2E00025D3E78A
:102330000B4A136843F480731360FFF711FD0646E0
:10234000074B1B6813F4807FCBD1FFF709FD801B7F
:102350006428F5D90320BCE000100240000042428E
:10236000007000405F4A136A43F001031362E368A0
:1023700033B3FFF7F5FC06465A4B1B6A13F0020F06
:102380002FD1FFF7EDFC801B41F288339842F3D93F
:1023900003209EE0052B09D0524B1A6A22F001025D
:1023A0001A621A6A22F004021A62E0E74D4B1A6AB6
:1023B00042F004021A621A6A42F001021A62D6E777
:1023C000FFF7CEFC0646474B1B6A13F0020F08D0FE
:1023D000FFF7C6FC801B41F288339842F3D90320F3
:1023E00077E0E5B9E369002B72D03E4A526802F00B
:1023F0000C02082A56D0022B17D03B4B00221A663B
:10240000FFF7AEFC0446374B1B6813F0007F47D044
:10241000FFF7A6FC001B0228F5D9032059E0314A3A
:10242000D36923F08053D361DCE72F4B00221A6677
:10243000FFF796FC05462B4B1B6813F0007F06D078
:10244000FFF78EFC401B0228F5D9032041E0236AE8
:10245000B3F5803F1AD023494B6823F47413226AE2
:10246000606A024313434B601F4B01221A66FFF759
:1024700077FC04461B4B1B6813F0007F0ED1FFF75F
:102480006FFC001B0228F5D9032022E0154A53688F
:1024900023F40033A1680B435360DCE7002018E00D
:1024A000002016E0012B16D00E4B5B6803F4803140
:1024B000226A914211D103F47013626A93420ED1E1
:1024C000002006E001207047012002E0012000E02A
:1024D000002002B070BD0120FBE70120F9E70120D8
:1024E000F7E700BF0010024000004242114B5A685B
:1024F00002F00C03042B18D0082B18D1C2F383432D
:102500000D49C85C12F4803F0BD00A4B5B68C3F3E3
:1025100040430A4AD35C0A4A02FB00F0B0FBF3F0E6
:102520007047084B03FB00F07047054870470648AA
:10253000704700BF00100240349700083097000831
:10254000001BB70000093D0000127A00002800F0CF
:10255000A08070B50D460446524B1B6803F007037C
:102560008B420BD24F4A136823F007030B431360CF
:10257000136803F007038B4240F08D80236813F04B
:10258000020F17D013F0040F04D0474A536843F4E6
:10259000E0635360236813F0080F04D0424A536885
:1025A00043F460535360404A536823F0F003A1683A
:1025B0000B435360236813F0010F31D06368012B84
:1025C00020D0022B25D0384A126812F0020F64D0B6
:1025D00035494A6822F0030213434B60FFF7C0FB02
:1025E0000646314B5B6803F00C036268B3EB820F65
:1025F00016D0FFF7B5FB801B41F288339842F0D923
:10260000032045E0284A126812F4003FE0D101207F
:102610003EE0254A126812F0007FD9D1012037E050
:10262000204B1B6803F00703AB420AD91D4A13680D
:1026300023F007032B431360136803F00703AB4237
:102640002DD1236813F0040F06D0174A536823F4E2
:10265000E063E1680B435360236813F0080F07D071
:10266000114A536823F46053216943EAC10353605C
:10267000FFF73CFF0C4B5B68C3F303130B4AD35CBF
:10268000D8400B4B18600B4B1868FFF725FB002058
:1026900070BD012070470120FAE70120F8E7012012
:1026A000F6E700BF0020024000100240209700081B
:1026B000040000200C000020014B1868704700BF88
:1026C0000400002008B5FFF7F7FF044B5B68C3F375
:1026D0000223034AD35CD84008BD00BF001002406B
:1026E0001897000808B5FFF7E7FF044B5B68C3F3D2
:1026F000C223034AD35CD84008BD00BF001002408B
:102700001897000830B4026A036A23F001030362D9
:102710004568836923F073030C681C4322F00202AE
:102720008B6813430B4A904206D0456084614A6827
:102730004263036230BC704723F00803CA681A433F
:1027400022F0040325F440754A692A438D69154334
:10275000EBE700BF002C014030B4036A026A22F4A8
:10276000807202624468C26922F073020D681543E8
:1027700023F400738A6843EA02230D4A904206D08C
:102780004460C5614A68C263036230BC704723F489
:102790000063CA6843EA022323F4806324F44054AC
:1027A0004A6944EA02148A6944EA0214E8E700BF6D
:1027B000002C014030B4036A026A22F480520262A3
:1027C0004468C26922F4E6420D6842EA052223F415
:1027D00000538D6843EA0533074DA84206D0446094
:1027E000C2614A680264036230BC704724F48044CA
:1027F0004D6944EA8514F2E7002C014010B4036AE5
:10280000046A24F001040462846924F0F00C4CEAA8
:10281000021223F00A030B438261036210BC70476B
:1028200010B4036A046A24F010040462846924F476
:10283000704C4CEA023223F0A00343EA0113826198
:10284000036210BC7047836823F070030B4343F0AE
:10285000070383607047000090F83D30DBB2012B26
:1028600022D1022380F83D300368114A934210D0F0
:10287000B3F1804F0DD0A2F59432934209D002F506
:102880008062934205D01A6842F001021A6000206B
:1028900070479A6802F00702062A07D01A6842F0C9
:1028A00001021A6000207047012070470020704725
:1028B000002C01400368196A41F21112114208D13B
:1028C000196A40F24442114203D11A6822F001020F
:1028D0001A60012380F83D300020704703681B4ACE
:1028E00090420AD0B0F1804F07D0A2F594329042C6
:1028F00003D002F58062904203D123F070034A684E
:102900001343124A90420AD0B0F1804F07D0A2F58B
:102910009432904203D002F58062904203D123F4B6
:102920004073CA68134323F080034A69134303606A
:102930008B68C3620B688362044B984202D0012308
:10294000436170470B690363F9E700BF002C014046
:1029500040B310B5044690F83D30F3B1022384F83B
:102960003D30214651F8040BFFF7B8FF012384F8EE
:10297000463084F83E3084F83F3084F8403084F8A4
:10298000413084F8423084F8433084F8443084F88D
:10299000453084F83D30002010BD80F83C30FFF712
:1029A00095F8DBE70120704740B310B5044690F876
:1029B0003D30F3B1022384F83D30214651F8040B39
:1029C000FFF78CFF012384F8463084F83E3084F80A
:1029D0003F3084F8403084F8413084F8423084F845
:1029E000433084F8443084F8453084F83D3000208A
:1029F00010BD80F83C30FFF78FF8DBE7012070470F
:102A000030B4036A026A22F01002026244688269EA
:102A100022F4E6420D6842EA052223F020038D6885
:102A200043EA05130C4DA84206D0446082614A680F
:102A30008263036230BC704723F08003CD6843EAB1
:102A4000051323F0400324F440644D6944EA8504EF
:102A50008D6944EA8504E8E7002C014038B590F818
:102A60003C30012B66D004460D46012380F83C30F3
:102A70000C2A5AD8DFE802F0075959591B595959FD
:102A80003059595944000068FFF73CFE22689369A9
:102A900043F0080393612268936923F00403936170
:102AA0002268936929690B43936100203EE0006826
:102AB000FFF7A6FF2268936943F4006393612268DD
:102AC000936923F48063936122689369296943EAD7
:102AD00001239361002029E00068FFF73DFE226892
:102AE000D36943F00803D3612268D36923F0040358
:102AF000D3612268D36929690B43D361002015E0B3
:102B00000068FFF757FE2268D36943F40063D3617E
:102B10002268D36923F48063D3612268D369296969
:102B200043EA0123D361002000E00120002384F860
:102B30003C3038BD0220FCE710B4846824F47F4C9C
:102B400042EA03220A4342EA0C02826010BC704748
:102B500090F83C30012B78D010B50446012380F862
:102B60003C30022380F83D300268936823F47F43B1
:102B700023F0770393600B68602B4CD029D8402B4F
:102B800054D00CD9502B22D1CA6849680068FFF78D
:102B900035FE50212068FFF756FE002005E0202B6F
:102BA0000DD009D9302B0AD00120012384F83D3003
:102BB000002384F83C3010BD0BB1102B05D1194611
:102BC0002068FFF740FE0020EFE70120EDE701203D
:102BD000EBE7B3F5805F34D0B3F5005F0CD1CB6881
:102BE0004A6889680068FFF7A7FF2268936843F482
:102BF000804393600020D8E7702B24D1CB684A68CB
:102C000089680068FFF798FF2268936843F07703AC
:102C100093600020C9E7CA6849680068FFF700FEB2
:102C200060212068FFF70FFE0020BEE7CA684968F0
:102C30000068FFF7E3FD40212068FFF704FE002055
:102C4000B3E70020B1E70120AFE70220704701F0B1
:102C50001F014FF0010C0CFA01FC036A23EA0C037C
:102C60000362036A8A4013430362704710B5044647
:102C7000084651BB94F83E30DBB2013B18BF01233C
:102C8000002B5BD1002839D1022384F83E30012289
:102C900001462068FFF7DBFF23682A4A93423DD0B4
:102CA0002368284A93423ED0B3F1804F3BD0A2F52F
:102CB0009432934237D002F58062934233D01A683F
:102CC00042F001021A60002039E0042908D00829E6
:102CD0000DD094F84130DBB2013B18BF0123CFE7A0
:102CE00094F83F30DBB2013B18BF0123C8E794F8EA
:102CF0004030DBB2013B18BF0123C1E7042805D0F7
:102D0000082807D0022384F84130C0E7022384F862
:102D10003F30BCE7022384F84030B8E75A6C42F4F5
:102D200000425A64BCE79A6802F00702062A07D0FC
:102D30001A6842F001021A60002000E0012010BD74
:102D40000020FCE7002C014090F83C20012A2CD008
:102D500010B40346012280F83C20022280F83D2076
:102D600002685068946820F0700C086840EA0C0013
:102D700050601A680E4882420AD0B2F1804F07D0E4
:102D8000A0F59430824203D000F58060824204D1E5
:102D900024F08004496821439160012283F83D209A
:102DA000002083F83C0010BC70470220704700BF31
:102DB000002C014010B504460268136923F4405307
:102DC000C1680B43136183680269134342691A4364
:102DD0000168CB6823F4B05323F00C031343CB609A
:102DE0000268536923F4407381690B43536102689D
:102DF000134B9A4220D0FFF765FC024602EB820299
:102E000002EB820263689B00B2FBF3F20D48A0FB69
:102E100002314909642303FB11231B013233A0FB58
:102E200003035B0903F0F00202EB011203F00F034E
:102E3000216813448B6010BDFFF754FC0246DDE7A8
:102E4000003801401F85EB512DE9F84305460F4638
:102E500016469946DDF820802B681C6837EA040482
:102E60000CBF01240024B4422DD1B8F1FF3FF3D0B0
:102E7000B8F1000F05D0FEF773FFA0EB0900404545
:102E8000EAD92A6802F10C0353E8003F23F4D07317
:102E90000C3242E800310029F3D12A6802F1140310
:102EA00053E8003F23F00103143242E800310029C7
:102EB000F3D1202385F8413085F84230002385F88E
:102EC0004030032000E00020BDE8F88360B310B577
:102ED000044690F8413013B3242384F8413022682B
:102EE000D36823F40053D3602046FFF763FF2268C2
:102EF000136923F4904313612268536923F02A0372
:102F000053612268D36843F40053D36000206064A7
:102F1000202384F8413084F84230606310BD80F88B
:102F20004030FEF79DFED7E7012070472DE9F041C4
:102F300082B01E4690F84130DBB2202B4BD10446C4
:102F40000D46904600294AD00AB9012044E00023EA
:102F50004364212380F84130FEF702FF0746A4F8BE
:102F60002480A4F82680A368B3F5805F02D04FF0D8
:102F700000080FE02369FBB14FF000080AE038F8C1
:102F8000023B2268C3F308035360E28C92B2013A19
:102F900092B2E284E38C9BB28BB100963B46002256
:102FA00080212046FFF750FFD8B9002DE7D015F853
:102FB000012B23685A60E8E7A8460025EAE7009657
:102FC0003B46002240212046FFF73EFF58B9202310
:102FD00084F8413000E0022002B0BDE8F081012019
:102FE000FAE70320F8E70320F6E72DE9F04182B085
:102FF0001E4690F84230DBB2202B53D104460D46DA
:103000009046002952D00AB901204CE000234364C5
:10301000222280F842200363FEF7A2FE0746A4F8AE
:103020002C80A4F82E80A368B3F5805F02D04FF007
:10303000000817E0236913B14FF0000812E0A8461A
:1030400000250FE023685B68C3F3080328F8023B00
:1030500003E023685B682B700135E28D92B2013A80
:1030600092B2E285E38D9BB2BBB100963B46002253
:1030700020212046FFF7E8FED0B9002DE2D0A3685A
:10308000B3F5805FE5D013B92369002BE1D0236845
:103090005B6803F07F032B70DEE7202384F8423067
:1030A000002000E0022002B0BDE8F0810120FAE734
:1030B0000320F8E7FEF79AFC0B480C490C4A002362
:1030C00002E0D458C4500433C4188C42F9D3094ADE
:1030D000094C002301E013600432A242FBD300F04C
:1030E00013FAFEF73DFB704700000020C4060020E5
:1030F000389B0008C4060020280B0020FEE70000D3
:10310000024A0349034800F0C9B800BF100000207C
:103110004D5A0008200000200C4B416810B5994220
:10312000044601D002F092FCA168094B994202D0FA
:10313000204602F08BFCE168064B994204D0204601
:10314000BDE8104002F082BC10BD00BF1408002092
:103150007C080020E40800202DE9F8430025042322
:10316000304C314A3149DFF8C890DFF8C880324F1F
:10317000324E116004F15C0029460822C4E903358F
:10318000C4E90055C4E90555A560656600F012F96B
:1031900004F15800C4E90749C4E90987E66200F070
:1031A000DBF9274B2946082204F1C4006367C4E910
:1031B0001A55C4E91E552567C4F8CC50C4F8805090
:1031C00000F0F8F804F1680304F1C000C4F884309A
:1031D000C4E92298C4E9247600F0BEF9194B2946C7
:1031E00004F596700822C4F8DC30C4E93455C4E90B
:1031F0003855C4F8D850C4F83451C4F8E85000F039
:10320000D9F804F1D003C4E93D87C4F8F09004F57F
:103210009470C4F8FC60C4F8EC30BDE8F84300F0EA
:103220009BB900BF140800204C09002001310008A0
:10323000253300084933000889330008AD330008FE
:10324000090001001200020010B504460A4800F00F
:1032500087F9636B23B9094B094A1B68626323B181
:10326000BDE81040044800F07DB9FFF775FFBDE8E8
:103270001040014800F076B95C0900204C0900209C
:1032800019310008014800F06BB900BF5C0900204B
:10329000014800F067B900BF5C0900202DE9F84340
:1032A0004FF0000980460F461646D6E90154013D0D
:1032B00010D4A389013D012B08D9B4F90E30013394
:1032C00004D021464046B84749EA00096B1C04F186
:1032D0006804EED13668002EE7D14846BDE8F88391
:1032E0000EB430B504466FF000459CB00B4A1FABDE
:1032F0000B49059253F8042B086802A9CDE9013463
:1033000004950795069400F057FD0022029B1A7061
:103310001CB0BDE8304003B0704700BF0802FFFF9B
:103320001C00002010B50C46B1F90E1000F0BAF8E0
:10333000002803DB236D0344236510BDA38923F418
:103340008053A38110BD00BF2DE9F0410C46B1F9B7
:103350000C101F46CB05054616460BD421F48051B0
:10336000A1813B4632462846B4F90E10BDE8F04133
:1033700000F0AEB8B4F90E100223002200F07CF881
:10338000B4F90C10EAE700BF10B50C46B1F90E1005
:1033900000F072F8B4F90C30421C0EBF23F48053D5
:1033A00043F480532065A38110BD00BFB1F90E1016
:1033B00000F050B870B5860747D0541E002A3ED0A2
:1033C0000346CAB201E0013C39D303F8012B9D0743
:1033D000F9D1032C2CD9CDB205EB05250F2C1A46BB
:1033E00005EB054534D9A4F1100C2CF00F0603F1C0
:1033F000100EB6444FEA1C1C156055609560D560F0
:1034000010327245F8D10CF1010214F00C0F03EBED
:10341000021204F00F0C13D0ACF1040323F00303E9
:103420000433134442F8045B9A42FBD10CF00304CA
:103430002CB1C9B21C4403F8011B9C42FBD170BDE6
:1034400064461346002CF4D1F9E703461446C0E75E
:10345000A446E1E7002238B5064D044608462A6036
:10346000FEF7B8FA431C00D038BD2B68002BFBD008
:10347000236038BD5009002038B50C4611460022A3
:103480008446074D20462A601A466446FEF7ACFA89
:10349000431C00D038BD2B68002BFBD0236038BD07
:1034A0005009002038B50C46114600228446074DCD
:1034B00020462A601A466446FEF750FA431C00D0A4
:1034C00038BD2B68002BFBD0236038BD500900208D
:1034D00038B50C46114600228446074D20462A6026
:1034E0001A466446FEF74AFA431C00D038BD2B68E2
:1034F000002BFBD0236038BD50090020014B186819
:10350000704700BF1C00002070B50F4B0F4DAB4241
:10351000A3EB050607D00024B61055F8043B013490
:103520009847A642F9D806F0B1F8094D094B5E1B41
:10353000AB424FEAA60606D0002455F8043B0134FE
:103540009847A642F9D870BD2C9B00082C9B000818
:103550002C9B0008349B0008704700BF704700BFD9
:10356000704700BF704700BF024B13B1024800F024
:1035700005B8704700000000315D000800230146D7
:103580001A46184602F0A8BC2DE9F8430646082062
:10359000894602F0E1FB0546DFF89880304600F0EE
:1035A000FFFBD8F808305F6827F00307A7F1110484
:1035B000A4EB09042C44B4FBF5F4013C05FB04F432
:1035C000A54208DC0021304602F0A0FBD8F8083004
:1035D0003B44984205D0304600F0E8FB0020BDE8AF
:1035E000F8833046614202F091FB01300FD0124A5D
:1035F000D8F808303F1B47F001075F60136830467A
:103600001B1B136000F0D2FB0120BDE8F8830021F2
:10361000304602F07BFBD8F80820831A0F2BDADD46
:1036200043F001035360054B03491B68C01A08604F
:10363000D1E700BF500100206409002044010020B0
:1036400000297BD0F8B50C46064600F0A9FB54F8DB
:10365000042C764FA4F1080522F001016818D7F870
:1036600008C04368844523F0030300F08480D20738
:10367000436034D454F8082C07F10804AD1A1144FF
:10368000AA68A24269D000EB030CDCF804E0D5F88C
:103690000CC01EF0010FC2F80CC0CCF8082000F0DE
:1036A000838041F001036B600160B1F5007F22D29D
:1036B0000122CB0849098A40796801330A437A60BC
:1036C00057F8331007EBC302083AC5E9021247F86E
:1036D0003350CD603046BDE8F84000F067BBC218FB
:1036E0005268D2072BD541F00103B1F5007F44F8B1
:1036F000043C0160DCD3B1F5206F4FEA512355D271
:103700008B0903F1390003F13802C300F818FB58A4
:103710000838984203D163E09B68984204D05A6805
:1037200022F003028A42F7D8D868C5E902308560E2
:103730003046DD60BDE8F84000F038BB7047194402
:1037400007F108048368A34241D0C268DA6093603D
:1037500041F001036B606950A7E7C2185268D407B3
:103760005FD40B44D0E90212CA60916043F00102B9
:103770006A60EB50AEE70B44D10707D454F8082C2D
:10378000AD1A1344D5E90212CA60916043F00102F8
:103790006A60274ABD6012689A429BD8254B304622
:1037A0001968FFF7F1FE95E71944CBE7142B08D908
:1037B000542B1DD80B0B03F16F0003F16E02C300F5
:1037C000A4E703F15C0003F15B02C3009EE741F054
:1037D00001033D617D61AC60EC606B60695079E72D
:1037E0000121921001FA02F279680A437A609CE79B
:1037F000B3F5AA7F06D8CB0B03F1780003F177026B
:10380000C30083E740F25452934206D88B0C03F175
:103810007D0003F17C02C30078E74FF47E737E22C3
:1038200074E741F001036B60016053E75001002031
:1038300048010020940900202DE9F04F01F10B050B
:10384000162D064683B024D8102900F2BA8000F065
:10385000A7FA102518230220B84F3B445C68A3F157
:103860000802944200F028816368E26823F00303B1
:103870002344A1683046CA6091605A6804F1080583
:1038800042F001025A6000F091FA284603B0BDE808
:10389000F08F35F0070500F19480A94200F2918085
:1038A00000F07EFAB5F5FC7FC0F071816B0A00F084
:1038B0008C80042B00F22C81AB0903F1390003F159
:1038C000380CC1009D4F39444C680839A14206D1DB
:1038D0000CE0002A80F2ED80E468A14206D0636823
:1038E00023F003035A1B0F2AF3DD6046DFF850C2B2
:1038F0003C69644500F0C980626822F00302531BF2
:103900000F2B00F34881002BC7E904CC80F23481EF
:10391000B2F5007F80F0D6804FF0010ED308520937
:1039200073440EFA02FE7A6857F833104EEA020E1C
:1039300007EBC302083AC7F804E0A160E26047F869
:103940003340CC60012283109A40724543D812EA7A
:103950000E0F07D120F00300520012EA0E0F00F103
:103960000400F9D007EBC00949468046CC68A14263
:1039700007D1D9E0002B80F2EF80E468A14200F08B
:10398000D380636823F0030EAEEB05030F2BF1DD4C
:10399000621945F0010565603046D4E90261F160C5
:1039A0008E6043F00101C7E90422C2F808C0C2F8E2
:1039B0000CC0516044F80E3000F0F8F904F108052D
:1039C00063E70C23336000255FE74FF4007140206C
:1039D0004FF03F0C76E7BC68636823F00309A94504
:1039E00003D3A9EB05030F2B52DC564B08201B68B1
:1039F00003F1100802F0B0F9534A04EB09030093F5
:103A0000136883460133A84405D008F1FF38804489
:103A1000434203EA08084146304602F077F9B0F124
:103A2000FF3F8246484A00F0D28004EB09038342FC
:103A300000F2CB80454B0BF1FF31186840448446BF
:103A4000186040F0F0801AEA010F40F0EC80D7F8DF
:103A500008A0C84448F00102CAF8042054463C4B70
:103A60001968814238BF18603A4B1968814238BFE3
:103A7000186022F00308A845A8EB050301D30F2B1B
:103A800006DC304600F092F99DE7D7F804E059E7EC
:103A9000621943F0010345F0010565603046BA60E4
:103AA00004F10805536000F081F9284603B0BDE831
:103AB000F08FE2682344DCE6DC68A3427FF4D4AEF6
:103AC000023013E7B2F5206F4FEA522377D3142B5D
:103AD00000F20D8103F15C01C9005B3307EB0108C3
:103AE0007958A8F10808884503D1E4E08968884539
:103AF00004D04B6823F003039342F7D8D1F80C802D
:103B0000D7F804E0C4E90218C8F80840CC6019E707
:103B1000142B5FD9542B00F2F2802B0B03F16F00B2
:103B200003F16E0CC100CDE608F1010818F0030F97
:103B300001F108017FF41AAF57E000BF50010020E7
:103B4000580100209409002044010020640900204D
:103B5000900900208C090020254604EB0E035A68CA
:103B6000E16842F001025A6055F8083F3046D960DA
:103B70008B6000F01BF988E622445368304643F01E
:103B80000103536000F012F904F108057DE6E8082E
:103B900005F1080360E6611945F00105656043F031
:103BA0000105C7E9041130464D60C1F808C0C1F8ED
:103BB0000CC0A35000F0FAF804F1080565E693097B
:103BC00003F13901C900383388E7BC4223D0BC680F
:103BD00062684EE703F15C0003F15B0CC10071E623
:103BE00059F808394B4540F0D68010F0030F00F12A
:103BF000FF30F5D17B6823EA02037B6052009A42D2
:103C00003FF6E9AE1AB9E6E6520008F104081A4296
:103C1000FAD04046A6E6614B0BF1FF31186808EB7D
:103C2000000CC3F800C01068013072D004EB090228
:103C3000AAEB020262441A601AF00702CDE90023DF
:103C400044D0C2F108029244D04408EA01005A4428
:103C5000121A02EA010B5946304602F057F8421C8C
:103C6000019B71D0A0EB0A0000EB0B08186848F02C
:103C700001025844BC42C7F808A01860CAF80420E2
:103C80003FF4ECAEB9F10F0F46D94FF0050C616867
:103C9000A9F10C0222F0070201F001011143616059
:103CA0000F2A04EB0201C1F804C0C1F808C053D8C0
:103CB000DAF80420D2E64FF0010E9B100EFA03FE54
:103CC0007B684EEA030EC7F804E01BE70AEB080224
:103CD0000A40ABEB020202EA010B5946304602F001
:103CE00015F8431C019BBDD1DDF800B0BEE7542B95
:103CF00016D8130B03F16F01C9006E33EEE6B3F56E
:103D0000AA7F16D8EB0B03F1780003F1770CC10002
:103D1000D8E5C2F800A08FE70123CAF80430B0E666
:103D2000B3F5AA7F23D8D30B03F17801C900773309
:103D3000D4E640F25452934223D8AB0C03F17D00F9
:103D400003F17C0CC100BDE5009A4FF0000B083A6E
:103D50009044A8EB0A0889E7304604F10801009373
:103D6000FFF76EFC009BD7F808A01868A0E740F2A8
:103D700054518B420BD8930C03F17D01C9007C3365
:103D8000ACE64FF47E717F204FF07E0C9AE54FF445
:103D90007E717E23A2E67B6830E700BF64090020C5
:103DA0000148FFF7DDBB00BF540900200148FFF7C1
:103DB000D9BB00BF540900202DE9F04FDDB00C46FF
:103DC000914609910E93834601F09CFF03681846C3
:103DD000199302F01BF80346082200212CA8179320
:103DE000FFF7E8FAA3891A0603D52369002B00F030
:103DF0008087002300249E46CDE93133002333AA77
:103E000090465D46CDE91434CDE91AEECDE91CEEBD
:103E10003092CDF860E0CDF828E0CDF848E0CDF85C
:103E20001C90079F704B2CAED3F8E44001F064FF68
:103E30003A46034628A928460096A047002800F0E5
:103E4000A280C0F29880289B252B01D00744E9E787
:103E5000079B0646B7EB030940F09A8000224FF01B
:103E6000FF3A93467B7807F101098DF897200B9272
:103E700009F10109A3F120025A2A00F2B780DFE814
:103E800012F0D302B500B500CE02B500B500B50002
:103E9000AD02B500B5006A000802B5000302E302F6
:103EA000B500DE025B005B005B005B005B005B005B
:103EB0005B005B005B00B500B500B500B500B50068
:103EC000B500B5003801B5008001FC0238013801A9
:103ED0003801B500B500B500B500A002B500B500C9
:103EE0000E02B500B500B500A401B5008E02B50004
:103EF000B500E506B500B500B500B500B500B500E4
:103F0000B500B5003801B5008001DA01380138018B
:103F100038014C02DA017500B5007002B500590293
:103F200008077D027500B500A4017200E106B50026
:103F3000B5000B07B50072000021A3F1300219F89B
:103F4000013B01EB810102EB4101A3F13002092A9F
:103F5000F5D90B918EE70E9B53F8042B002A0B9298
:103F60000E93C0F28E8199F8003081E799F8003005
:103F70004BF0200B7CE7082200212CA8FFF71AFA4F
:103F8000012007444EE7079B0646B7EB030912D012
:103F9000079BC8E90039329B4B443293319B013374
:103FA000072B319316DC08F108080A9B4B440A934F
:103FB000002E7FF453AF329B002B41F03382099BDC
:103FC0009B8903F04003002B41F004840A985DB004
:103FD000BDE8F08F2846099930AA03F0CFFB0028EE
:103FE000EDD10DF1CC08E0E7580500200F93002B30
:103FF000E1D000228DF80C31012343A908930791E9
:104000008DF897200C939246CDE910220D921392D1
:104010001BF0020302D00899023108911BF08404BE
:1040200005D10B9908980F1A002F00F39683329E42
:1040300082B10122C8F80420319A013601320DF113
:104040009701072A32963192C8F8001000F3EE83E8
:1040500008F108087BB10223C8F80430319B02360E
:10406000013326AA072B32963193C8F8002000F3BB
:10407000EB8308F10808802C00F08F820C9BAAEBE0
:104080000307002F00F3CC821BF4807F40F00B82EB
:10409000079BC8F800300C9B1E44C8F80430319BC5
:1040A00032960133072B319300F34C8308F1080853
:1040B0001BF0040F05D00B9B089A9C1A002C00F3F0
:1040C000CF83DDE90A3208998A42ACBF9B185B189E
:1040D0000A93002E40F0D882002331930D9B1BB130
:1040E00028460D99FFF7ACFA0DF1CC08CDF81C90DD
:1040F00097E60F930E9B073323F00702F2E8023492
:10410000CDE91434DDE9146727F000431F931E96B0
:104110000E92AE4B4FF0FF32DDE91E01FCF7E8FFD7
:10412000002840F03485DDE91E014FF0FF32A74B37
:10413000FCF7C0FF002840F02A850022002330460B
:104140003946FCF7ADFF002841F019809DF8972013
:10415000002103209E4C9F4B2BF0800B0D9108906B
:104160000F9E8A46472EC8BF1C46CDE91011079402
:104170000C901391002A3FF44BAF089B0133089336
:1041800046E7432B0F9303D01BF0100F00F08885F8
:104190000E9E082200212EA843ACFFF70BF92EAB90
:1041A0002146284656F8042B03F0B6FA034601339D
:1041B0000C9001F00A830C9B0E9623EAE37308939C
:1041C000002207948DF897201DE70F9300230E9F80
:1041D0008DF8973057F8043B0793002B00F0788553
:1041E0000F9B532B00F023871BF01003109340F01C
:1041F0001E87BAF1FF3F01F02081524610990798BF
:1042000001F0B8FD0D90002801F06B830D9B079A1B
:10421000DDF840A09B1A73220C9323EAE3730F92FC
:104220000E979DF897200893CDF84CA0CDF844A0A8
:10423000CDF834A09EE71BF0200F0F9300F02481EF
:104240000E9B073323F007031846596850F8083BC4
:104250000A460E900029C0F24584BAF1FF3F00F0F3
:10426000D58253EA02012BF0800440F0D082BAF1EB
:10427000000F40F0D182A3465CABCDF830A007938D
:104280003EE00B9B5B420B9399F800304BF0040B24
:10429000EEE52B238DF8973099F80030E8E50F9381
:1042A0004BF0100B1BF0200200F00E840E9B073326
:1042B00023F0070319465A6851F8083B0E91002075
:1042C0002BF480640021BAF1FF3F8DF8971000F0C5
:1042D000478153EA020124F0800B40F04081BAF19B
:1042E000000F40F092860028C6D114F001030C9311
:1042F00017BF30235CAB8DF86F310DF26F1307934E
:104300000C9A00235245B8BF5246CDE910330892AB
:104310000D939DF8972013932CE799F80030682BA4
:1043200003BF99F801304BF4007B09F101094BF010
:10433000400B9DE51BF0200F40F01F841BF0100F79
:1043400040F0CE861BF0400F40F0A6871BF4007FA4
:1043500000F0C6860E9B0A9953F8042B11700E9339
:10436000C4E699F800306C2B03BF99F801304BF08C
:10437000200B09F101094BF0100B79E547F63003EA
:1043800078210E9AADF898300F9152F8043B1249FB
:104390000E92022000224BF00204189192E70F9334
:1043A0004BF0100414F0200200F07F830E9B0120DC
:1043B000073323F0070319465A6851F8083B0E915A
:1043C00080E799F800304BF0080B51E5FFFFEF7FD5
:1043D000449700084897000854970008284601F0C1
:1043E00091FC436818461C9301F010FD03462846D3
:1043F0001C461D9301F086FC83681A93002C3FF441
:10440000B2AD1A9B002B3FF4AEAD1A9B1B78002B6C
:104410003FF4A9AD99F800304BF4806B28E599F88A
:1044200000304BF0010B23E59DF89730002B7FF413
:104430009AAD20238DF8973099F8003018E599F857
:1044400000304BF0800B13E5494611F8013B2A2B55
:1044500001F0BB82A3F13002092A89464FF0000A1D
:104460003FF608AD19F8013B0AEB8A0A02EB4A0A4B
:10447000A3F13002092AF5D9FCE44BF0100B1BF034
:10448000200F0F937FF4DCAE1BF0100F0E9A40F05C
:104490006D831BF0400F00F0658332F9043B0E92F0
:1044A000DA171146D6E60F9B652B40F30381DDE951
:1044B000140100220023FCF7E9FD002800F00D8222
:1044C0000123C8F80430319BAB4A01330136072B76
:1044D00032963193C8F8002000F39C8508F1080853
:1044E000279B129A934280F22183179B199A1E44AC
:1044F000C8E90023319B32960133072B319300F337
:10450000DB8308F10808129B5C1E002C7FF7D0ADFE
:10451000102C41F351829949324610270E46319BA7
:10452000DDF824A0169105E008F10808103C102CD5
:1045300040F3A68501331032072BC8E90067CDE9A7
:104540003132F1DD5146284630AA03F017F9002830
:1045500040F0A280DDE931320DF1CC08E6E75C469F
:10456000012800F05481022800F03B815CAE03F08A
:104570000701DB0843EA4273D208303153EA0207ED
:10458000304606F8011DF2D1E207079600F12982B4
:104590005CAB9B1BA3460C93B2E60B9B089A9F1A3D
:1045A000002F7FF76BAD102F41F30A81734842460D
:1045B000314610240646319BDDF82480169004E035
:1045C000103F102F02F1080214DD01331031072BC8
:1045D000C2E90064CDE93131F2DD4146284630AA16
:1045E00003F0CCF8002857D1DDE93131103F102F0E
:1045F00033AAEADC90460E460133169A3E44072B56
:10460000CDE93136C8F80020C8F8047000F34E85B3
:104610000C9B08F10808AAEB0307002F7FF734ADC5
:10462000102F40F3A785554B4FF0100A1693099CA5
:10463000319B04E0103F102F08F1080815DD01330D
:104640004E4A1036072BC8E9002ACDE93136F1DD94
:104650002146284630AA03F091F8E8B9DDE9313661
:10466000103F102F0DF1CC08E9DC0133169A3E44BF
:10467000072BCDE93136C8F80020C8F8047000F3E4
:10468000078208F10808FFE42846099930AA03F0D8
:1046900075F800283FF420ADAB460D9B002B3FF48E
:1046A0008EAC58460D99FEF7CBFF099B9B8903F012
:1046B000400388E4129B012B40F3A181079B319FAB
:1046C000C8F8003001231F440136072F3296C8F87E
:1046D0000430319700F31D8208F10808179B013759
:1046E000199A1E44072FC8E90023CDE9317600F35B
:1046F000038208F108080022DDE914010023FCF719
:10470000C5FC002840F09A81129B079C0137013BB1
:1047100001341E44072FC8F800403197C8F8043010
:10472000329600F37E8108F108081B9B01371E4476
:10473000C8F80430072F2AABCDE93176C8F800302D
:104740007FF7B4AC2846099930AA03F017F800287F
:10475000A2D1329E0DF1CC08AAE4102F40F3E687D7
:10476000DDE93121DFF818C040461026A046CDF81B
:1047700058C0644622930AE084970008889700088E
:1047800098970008103F102F00F1080015DD013246
:104790001031072AC0E90046CDE93121F2DD284673
:1047A000099930AA02F0EAFF00287FF475AFDDE92D
:1047B0003121103F102F33A8E9DC44468046229B6C
:1047C000013216987E18072ACDE93126C8F8000074
:1047D000C8F8047000F3CB839DF8972008F108080F
:1047E00026E4189E5CA903F00F00305C1B0943EA25
:1047F0000273120901F8010D53EA0200F3D10A46CF
:104800005CAB9B1AA34607920C9379E55C460A2B96
:1048100072F1000180F0478330338DF86F3101234E
:104820000C930DF26F13A346079369E52846099987
:1048300030AA169302F0A2FF00287FF42DAF329E1B
:10484000169B0DF1CC0805E42846099930AA02F020
:1048500095FF00287FF420AF329E0DF1CC080AE4CA
:10486000102C40F39D87DFF8F4B21027319BDDF860
:1048700024A0CDF858B004E0103C102C08F1080832
:1048800016DD01331036072BC8E900B7CDE9313604
:10489000F2DD5146284630AA02F070FF00287FF46E
:1048A000FBAEDDE93136103C102C0DF1CC08E8DC14
:1048B0000133169A2644072BC8E90024CDE9313686
:1048C0007FF7FFAB2846099930AA02F057FF00286E
:1048D0007FF4E2AE329EFFF7F4BB2799002940F344
:1048E0005783109C129A079B9442A8BF14469A18AB
:1048F000002C0C920BDDC8E90034319B26440133B7
:10490000072B3296319300F3848608F10808109F34
:10491000002CA8BF3F1B002F00F3FA81DDF81CA07C
:10492000109B1BF4806F9A4440F01982279C129BC5
:104930009C4203DB1BF0010F00F0A484179B199A23
:104940001E44C8E90023319B32960133072B319373
:1049500000F3B58608F10808129B1C1B0C9BA3EB07
:104960000A07A742A8BF2746002F0DDD319B3E4412
:104970000133072BC8F800A0C8F8047032963193B1
:1049800000F3FE8608F10808002FA8BFE41B002CE6
:104990007FF78EAB102C41F30F8071493246102700
:1049A0000E46319BDDF824A0169105E008F10808B9
:1049B000103C102C40F3648301331032072BC8E9FC
:1049C0000067CDE93132F1DD5146284630AA02F0C8
:1049D000D5FE00287FF460AEDDE931320DF1CC0860
:1049E000E6E7302900F05B833023079A023802F8AB
:1049F000013C5CAB1B1AA3460C93079080E41BF0B0
:104A0000010F7FF45BAE079B319FC8F80030012394
:104A10001F440136072F3296C8F8043031977FF7CC
:104A200082AE2846099930AA02F0A8FE00287FF439
:104A300033AEDDE931760DF1CC0876E6129B5C1ED3
:104A4000002C7FF772AE102C40F3CF87444B3246D8
:104A50004FF0100A1E46169305E008F10808103CB6
:104A6000102C40F3798301371032072FC8E9006A10
:104A7000CDE93172F1DD2846099930AA02F07EFEB7
:104A800000287FF409AEDDE931720DF1CC08E6E7CC
:104A90002846099930AA02F071FE00287FF4FCAD87
:104AA000329E0DF1CC08FFF7EFBA14F010030E9907
:104AB00045D114F040003ED01A4651F8043B012085
:104AC0000E919BB2FFF7FEBB1BF010030E9940D175
:104AD0001BF0400039D01A4651F8043B0E919BB2AE
:104AE000FFF7EDBB5B425C464FF02D014FF001003C
:104AF00062EB4202FFF7E7BB2846099930AA02F0B1
:104B00003DFE00287FF4C8ADDDE931760DF1CC081B
:104B1000F1E52846099930AA02F030FE00287FF41A
:104B2000BBADDDE931760DF1CC08D7E51BF0010F07
:104B30003FF4BEAAD9E414F4007240F0C38351F8E4
:104B4000043B01200E91FFF7BDBB1BF4007240F047
:104B5000AB8351F8043B0E91FFF7B1BB9897000867
:104B6000889700081BF4007F40F0A58352F8043BAF
:104B70000E92DA171146FFF76DBB0E9B0A9853F899
:104B8000041BC217C1E900020E93FFF7AFBADDE9BB
:104B9000140102460B46FCF7ABFA002840F0B2863F
:104BA0000F9B612B00F04A85412B00F0E785BAF19D
:104BB000FF3F00F078840F9B23F02003472B04D1A4
:104BC000BAF1000F08BF4FF0010ADDE914124BF4EF
:104BD0008070002A4FF000031690CDF820B0C0F28C
:104BE0006485CDE9201222930D930F9B413B252B29
:104BF00000F27683DFE813F0620474037403740335
:104C00005B045F0474037403740374037403740318
:104C100074037403740374037403740374037403DC
:104C200074037403740374037403740374037403CC
:104C300074037403740374037403740374037403BC
:104C40005B045F045C460F93FFF7ACBB0F939F4B75
:104C500018931BF0200200F006810E9B073323F00F
:104C6000070319465A6851F8083B0E911BF0010FD3
:104C70000AD053EA020107D00F994BF0020B8DF8CE
:104C8000991030218DF8981002202BF48064FFF7E2
:104C900019BB0F93FFF706BB0F938D4B1893D8E703
:104CA00001210E9B089153F8042B43AC8DF80C2185
:104CB0000E930C91FFF784BA2846099930AA02F0A6
:104CC0005DFD00287FF4E8AC329E0DF1CC081AE4BB
:104CD0005346062B28BF0623079A7E499246CDE904
:104CE000102208930E970D9207910C931392FFF7E1
:104CF00041BA40215846FEF79FFD099B1860186194
:104D0000002800F094864023099A5361FFF771B898
:104D1000102F40F36586704932464FF0100A0E4658
:104D2000319B099C169105E008F10808103F102FEF
:104D300040F32A8201331032072BC8E9006ACDE91B
:104D40003132F1DD2146284630AA02F017FD002855
:104D50007FF4A2ACDDE931320DF1CC08E6E72B4659
:104D600055469A46119B42463146CDF81C90CDF8E7
:104D70003CB0DDF86890DDF87480139EDDF824B057
:104D800073B3002E00F03B81013E31981C9B013033
:104D900041440728C2E900383291319078DC08326A
:104DA0000C9B99F800005F1B8742A8BF0746002FA5
:104DB0000CDD3198394401300728C2E9005732919F
:104DC000319000F3808199F800000832002FB4BFC1
:104DD0000446C41B002C15DC0544119B002BD0D1CC
:104DE000002ED1D15346AA461D460C9BCDF86890A3
:104DF0009A4590460E4628BF9A46DDF81C90DDF88D
:104E00003CB093E5102C40F3DC85334F319804E03F
:104E1000103C102C02F1080217DD2F4B01301360FB
:104E2000102310310728CDE931015360F0DD5946D8
:104E3000504630AA02F0A2FC002840F00282DDE9D0
:104E40003101103C102C33AAE7DC01302144072843
:104E5000CDE931011760546000F3CC8399F800006C
:104E600008320544B9E71BF010030E990CD11BF072
:104E7000400005D01A4651F8043B0E919BB2F5E66E
:104E80001BF4007240F0268251F8043B0E91EDE6CF
:104E90005946504630AA02F071FC002840F0D181FA
:104EA000329933AA7CE704F48061CDE90CA810950F
:104EB0004FF0000E4FF0050B0D46CDE90794074F5C
:104EC000DDF868800DF5B87C11E000BF6897000838
:104ED000549700087C97000888970008CDCCCCCC6C
:104EE0000A2B72F1000237D34B462246B44699187A
:104EF00041F10001A7FB010424F0030000EB940042
:104F00004FF0CC34091A581A04FB00F462F1000A7D
:104F1000A0FB079007FB0A4409F0010A0444AAFB1E
:104F20000B0A40184FEA5909303049EAC4790EF1AA
:104F3000010E0CF1FF360CF8010C6408002DCFD0E7
:104F400098F800108E45CBD1BEF1FF0FC8D00A2BC8
:104F500072F1000280F02981DDE90794CDF86880C4
:104F60003246DDE90CA8109DCDF848E048E428461B
:104F7000099930AA169302F001FC00287FF48CAB4B
:104F80009DF89720329E169B0DF1CC08FFF750B884
:104F90000123C8F80430319BB84A01330136072B8E
:104FA00032963193C8F8002000F35A8108F10808BE
:104FB000002940F09D80129A0BF0010313433FF447
:104FC00077A8179B19999A19C8E90013319B329257
:104FD0000133072B319300F3588208F10808079931
:104FE0000133C8F800101299072B01EB0206CDE936
:104FF0003136C8F804107FF759A8FFF7A3BB119BFF
:1050000009F1FF39013B1193BFE601285C467FF4AB
:10501000AAAA01E42846099930AA02F0AFFB0028A9
:105020007FF43AAB329E0DF1CC08FFF759BA079BDB
:105030002EAC0822002120462993FEF7BBF9BAF1D5
:10504000FF3F00F0C1800026CDF82090B1460DE072
:1050500043A92346284602F05FFB411C484400F068
:10506000B483504507DC00F064848146299B9A593B
:105070000436002AECD1CDF83090DDF82090B1E074
:105080001646169A01332644072BC8F80020C8F8A4
:105090000440CDE931367FF709A8FFF753BB079AE3
:1050A0005CAB9B1AA3460C93FFF72AB928460999D3
:1050B00030AA02F063FB00287FF4EEAA329E0DF1C5
:1050C000CC08FEF7DBBF5946504630AA02F056FB2B
:1050D000002840F0B68099F80000329933AA75E6AE
:1050E0000E9B0A9953F8042B11600E93FEF7FEBF36
:1050F000179B19989A19C8E90003319B3292013322
:10510000072B319300F3C18108F108080029BFF68D
:1051100066AF4F42103180F27583594C10261694B9
:1051200005E008F10808103F102F40F36D830133AC
:105130001032072BC8E90046CDE93132F1DD2846AF
:10514000099930AA02F01AFB00287FF4A5AADDE92C
:1051500031320DF1CC08E6E716460137169B26449E
:10516000072FCDE93176C8F80030C8F804407FF742
:10517000DAAA56E4424A319B1692FFF776BA2D22FC
:105180008DF89720FEF7E4BF16460133169A3E4489
:10519000072BCDE93136C8F80020C8F8047000F3B9
:1051A000678108F10808FFF7B9BB1D9B1C99F61A27
:1051B0001A46304600F06AFD98F801300BB108F14C
:1051C00001084FF0000E8FE6002328461946009490
:1051D00029AA02F0C7FA034601330C9000F0F582C9
:1051E000079B29930C9B7BB3632B40F33C812846A0
:1051F000591CFEF721FB0790002800F0E682079B70
:105200000D93082200212046FEF7D4F800940C9C50
:1052100028462346079929AA02F0A4FA844240F0BE
:105220000A8400230C9A9A4622EAE27108910799AF
:10523000CDE910338B549DF897200E971393FEF70A
:1052400099BFD346FFF729BA0C9B9DF897209A4641
:10525000CDE910330E97089313930D93FEF78ABF91
:105260002846099930AA02F089FA00287FF414AA86
:105270002799329E0DF1CC089AE600BF849700086A
:10528000889700080C9BA3EB0A07129B1C1BA742E4
:10529000A8BF2746FFF778BB0E9B0A9953F8042B4B
:1052A00011800E93FEF722BF51F8043B02460E9187
:1052B000DBB2FFF704B812F9043B0E92DA1711467D
:1052C000FEF7C8BF51F8043B02460E910120DBB245
:1052D000FEF7F8BF51F8043B02460E91DBB2C5E47D
:1052E00057460223CDE900372EAB049329AB039335
:1052F00027AB02932846DDE9202300F0D1FE0F9B67
:105300000790672B00F018820F9B472B00F07282EA
:105310000F9B23F02004079B462C03EB070605D1C7
:105320001B78302B00F0C482279F3E440022DDE929
:1053300020010023FBF7AAFE002800F04F8133462E
:10534000079A9B1A1293472C00F03281462C00F0EA
:10535000FA81279B0F9A1093612A03F1FF33279359
:1053600000F05C83412A40F02E8150220121002B65
:105370008DF8A820B6BF2D222B22109B8DF8A920D6
:10538000B8BFC3F10103092B40F358820DF1BF07E9
:105390003A46DFF898C219461046ACFB0342D208E1
:1053A00002EB8204A3EB440303F1300463291346A8
:1053B00000F8014C00F1FF32EDDC303302F8013C23
:1053C000831EBB4280F02C830DF1A90213F8011B50
:1053D000BB4202F8011FF9D15CAB181AA0F1AD0372
:1053E0001B93129B1B9A012B1A440C9240F35B8275
:1053F0000C9B179A13440C93089B0C9A23F480631C
:1054000043F4807B0023CDE9103322EAE272139348
:105410000892229B002B40F0DA809A469DF8972054
:10542000FEF7A8BE099C2846214630AA02F0A6F93C
:10543000A38903F04003FEF7C6BD07980E9700F05E
:10544000E5FC7323DDF840A00F9320EAE0739DF89C
:1054500097200C90CDF84CA0CDF844A0CDF834A006
:105460000893FEF787BE00230D9343AB0793C8E66E
:105470002846099930AA02F081F900287FF40CA986
:10548000329E0DF1CC08FFF749BA2846099930AA97
:1054900002F074F900287FF4FFA8DDE93132279982
:1054A0000DF1CC0832E64FF0060AFFF78EBB02235F
:1054B0000AF1010716E75746032313E727AADDE998
:1054C000200100F0D1FC00224FF07F53FAF7DCFFFF
:1054D0000022002306460F46FBF7D8FD002840F0C7
:1054E000D881534B0C930AF1FF33CDE911A92395D1
:1054F000DDF81CB01D46DDF830A0CDF84C8005E08D
:1055000000220023FBF7C2FDF0B945460022494BBB
:1055100030463946FAF7B8FF0F460646FBF7FEFD60
:105520000446FAF747FF0B46024639463046FAF77B
:10553000F3FD1AF80430D9460BF8013B6B1C064604
:105540000F4605F1FF38DBD10022304639463A4B91
:10555000DDF844A01095CDF84490DDF84C80DDF8DE
:105560004890239DFBF7BAFD002840F07581304636
:1055700039460022304BFBF789FD10B1E20700F1FC
:105580006B81109B002BC0F282813022109B013373
:105590005B440BF8012B5B45FBD1079A9B1A1293D6
:1055A0000F9B23F02004CEE62E9B079A9B1A1293A2
:1055B000279B1093033380F290800F9B023B0F9345
:1055C000109B013B279300219DF83C20CFE62D2224
:1055D0004FF0000A8DF89720FEF7CFBD2E9BB34207
:1055E000BFF4AEAE30215A1C2E9219702E9B9E42F3
:1055F000F9D8A5E65946504630AA02F0BFF800286F
:105600007FF41FAE99F80000329933AA0544FFF7E2
:10561000E4BB2846099930AA02F0B0F800287FF4CC
:105620003BA8329E0DF1CC08FFF771B9CDCCCCCCA4
:1056300068970008000030400000E03F78238DF8B4
:1056400099303023BAF1630F8DF898304BF0020394
:10565000089300F3C48000230D9343AB07934BF4EE
:1056600081731693159B002B20DB00232293DDE929
:105670001434CDE920340F9B612B7FF4B6AADDE909
:10568000200127AA00F0F0FB00224FF07F53FAF729
:10569000FBFE0022002306460F46FBF7F7FC00281E
:1056A00040F0F780A54B0C931DE70D932D22DDE90B
:1056B0001434209304F1004322922193DBE728461F
:1056C000099930AA02F05AF800287EF4E5AF279C29
:1056D000329E0DF1CC08FFF73FB9109B9A4505DAD1
:1056E0000F9A013B023A0F9227936CE7109B129A94
:1056F00093425ADB089B13F0010F109B00F01781B7
:10570000179A13440C93089B580503D5109B002B44
:1057100000F3208167230F930C9BDDF858B023EA38
:10572000E373089300231393119372E68448DDE931
:1057300031211690FFF744B8089BDB077FF534AFA3
:105740004724C619F2E5279A089B002A109203F015
:10575000010340F34E8153EA0A0340F02481109B79
:105760000C9366230F93089B5B0500F1F5800C9B5F
:10577000DDF858B023EAE3730893D3E758235EE7D4
:105780002846099930AA01F0F9FF00287EF484AF79
:10579000279C129B329E0DF1CC081C1BFFF7F4B81E
:1057A000674A319B1692FFF783B8129B179A9A1893
:1057B000109B0C92002B40F3888067230F93D2E755
:1057C000604A319B1692FEF717BF099A938943F0FE
:1057D000400393814FF0FF330A93FEF7F7BB28464F
:1057E0000AF10101FEF728F807900028EDD0079B89
:1057F0000D9334E7089BDE077FF5D6AE079B0F9C21
:10580000DE1993E54F491691013316993A44072B57
:10581000CDE93132C8F80010C8F804707FF7DDAB6D
:105820002846099930AA01F0A9FF00287EF434AF78
:10583000DDE931320DF1CC08FFF7D1BB00295ED193
:1058400030228DF8AA200DF1AB02303302F8013B73
:105850002AABD31A1B93C4E5119B2E930C9B1BF808
:10586000012CD97B5B468A4209D1302003F8010C18
:105870002E9B5A1E2E9213F8012C9142F6D0392AF3
:105880000BBF0C9A0132927AD2B203F8012C5B461C
:1058900083E60123294A0F9927932B4B612918BFCF
:1058A0001A460C921FE6089BDC077FF5A5AD9FE525
:1058B0000022DDE920010023FBF7E8FB00287FF44C
:1058C00033ADC7F1010727972FE5C3F101031A4450
:1058D00067230F9322EAE273DDF858B00C92089325
:1058E00020E77323CDF820A0CDF830A09DF89720B5
:1058F00082460E970F9313901190FEF73BBC0DF16B
:10590000AA02A2E7159B0021002BB8BF2D224FF061
:105910000300A8BF9DF897200C4C0D4BB8BF8DF825
:1059200097202BF0800B0D910890FEF719BC0C937B
:10593000E9E6DDF82090CDF830A053E45497000854
:105940009897000888970008689700084C97000807
:105950005097000867230F931A990B78FF2B62D09A
:105960000024109A204603E001300131FF2B08D0BB
:10597000934206DAD21A4B78002BF5D10B7801341A
:10598000F4E71A91119013941092119A139B1D9998
:1059900013440C9ADDF858B001FB03230C9323EA5F
:1059A000E373089335E5179B02EB030B0BEB0A033C
:1059B0000C9366230F93D6E6234A319B1692FFF78A
:1059C00060BB3198204FFFF740BA0E9A99F801302A
:1059D000894652F8041B0E9241EAE17AFEF748BA72
:1059E000194A319B1692FFF7D0BB174B1693FFF75E
:1059F000B4BB53EA0A03DDF858B005D1012366228F
:105A000008930F920C938DE66622179B0F92013339
:105A100053440C9323EAE373089383E67022A5E4CE
:105A200002231B93DDE4002313931193ADE70C23B2
:105A3000CBF80030CEE6099AAB46938943F0400399
:105A40009381FEF72ABE00BF8897000870B5002931
:105A500040D006460C4610B1436B002B3DD0636E20
:105A6000DD0733D4A38998053AD52146304600F0A6
:105A70004FF8E36A054633B13046E169984700289C
:105A8000B8BF4FF0FF35A3891A063BD4216B41B153
:105A900004F14003994202D03046FDF7D1FD0023C6
:105AA0002363616C21B13046FDF7CAFD00236364B6
:105AB000FDF7E8FB0022636EA281DB071ED5A06D17
:105AC000FDF74CFDFDF7E4FB284670BDB4F90C3042
:105AD000002BCAD10025284670BDFDF7B5FBBEE7F7
